{
  "_format": "hh3-artifact-1",
  "contractName": "AssetSale",
  "sourceName": "contracts/AssetSale.sol",
  "abi": [
    {
      "inputs": [
        {
          "internalType": "address",
          "name": "initialOwner",
          "type": "address"
        },
        {
          "internalType": "address",
          "name": "cbdcAddress",
          "type": "address"
        },
        {
          "internalType": "address",
          "name": "assetAddress",
          "type": "address"
        }
      ],
      "stateMutability": "nonpayable",
      "type": "constructor"
    },
    {
      "inputs": [
        {
          "internalType": "address",
          "name": "owner",
          "type": "address"
        }
      ],
      "name": "OwnableInvalidOwner",
      "type": "error"
    },
    {
      "inputs": [
        {
          "internalType": "address",
          "name": "account",
          "type": "address"
        }
      ],
      "name": "OwnableUnauthorizedAccount",
      "type": "error"
    },
    {
      "anonymous": false,
      "inputs": [
        {
          "indexed": true,
          "internalType": "uint256",
          "name": "tokenId",
          "type": "uint256"
        },
        {
          "indexed": false,
          "internalType": "uint256",
          "name": "price",
          "type": "uint256"
        }
      ],
      "name": "AssetListed",
      "type": "event"
    },
    {
      "anonymous": false,
      "inputs": [
        {
          "indexed": true,
          "internalType": "uint256",
          "name": "tokenId",
          "type": "uint256"
        },
        {
          "indexed": true,
          "internalType": "address",
          "name": "buyer",
          "type": "address"
        },
        {
          "indexed": false,
          "internalType": "uint256",
          "name": "price",
          "type": "uint256"
        }
      ],
      "name": "AssetSold",
      "type": "event"
    },
    {
      "anonymous": false,
      "inputs": [
        {
          "indexed": true,
          "internalType": "address",
          "name": "previousOwner",
          "type": "address"
        },
        {
          "indexed": true,
          "internalType": "address",
          "name": "newOwner",
          "type": "address"
        }
      ],
      "name": "OwnershipTransferred",
      "type": "event"
    },
    {
      "inputs": [],
      "name": "asset",
      "outputs": [
        {
          "internalType": "contract IERC721",
          "name": "",
          "type": "address"
        }
      ],
      "stateMutability": "view",
      "type": "function"
    },
    {
      "inputs": [
        {
          "internalType": "uint256",
          "name": "tokenId",
          "type": "uint256"
        }
      ],
      "name": "buy",
      "outputs": [],
      "stateMutability": "nonpayable",
      "type": "function"
    },
    {
      "inputs": [],
      "name": "cbdc",
      "outputs": [
        {
          "internalType": "contract IERC20",
          "name": "",
          "type": "address"
        }
      ],
      "stateMutability": "view",
      "type": "function"
    },
    {
      "inputs": [
        {
          "internalType": "uint256",
          "name": "tokenId",
          "type": "uint256"
        },
        {
          "internalType": "uint256",
          "name": "price",
          "type": "uint256"
        }
      ],
      "name": "listAsset",
      "outputs": [],
      "stateMutability": "nonpayable",
      "type": "function"
    },
    {
      "inputs": [],
      "name": "owner",
      "outputs": [
        {
          "internalType": "address",
          "name": "",
          "type": "address"
        }
      ],
      "stateMutability": "view",
      "type": "function"
    },
    {
      "inputs": [
        {
          "internalType": "uint256",
          "name": "",
          "type": "uint256"
        }
      ],
      "name": "prices",
      "outputs": [
        {
          "internalType": "uint256",
          "name": "",
          "type": "uint256"
        }
      ],
      "stateMutability": "view",
      "type": "function"
    },
    {
      "inputs": [],
      "name": "renounceOwnership",
      "outputs": [],
      "stateMutability": "nonpayable",
      "type": "function"
    },
    {
      "inputs": [
        {
          "internalType": "address",
          "name": "newOwner",
          "type": "address"
        }
      ],
      "name": "transferOwnership",
      "outputs": [],
      "stateMutability": "nonpayable",
      "type": "function"
    }
  ],
  "bytecode": "0x60c060405234801561000f575f5ffd5b5060405161080938038061080983398101604081905261002e916100e8565b826001600160a01b03811661005c57604051631e4fbdf760e01b81525f600482015260240160405180910390fd5b6100658161007e565b506001600160a01b039182166080521660a05250610128565b5f80546001600160a01b038381166001600160a01b0319831681178455604051919092169283917f8be0079c531659141344cd1fd0a4f28419497f9722a3daafe3b4186f6b6457e09190a35050565b80516001600160a01b03811681146100e3575f5ffd5b919050565b5f5f5f606084860312156100fa575f5ffd5b610103846100cd565b9250610111602085016100cd565b915061011f604085016100cd565b90509250925092565b60805160a0516106ad61015c5f395f8181608e015281816101f5015261046701525f818160ff015261035601526106ad5ff3fe608060405234801561000f575f5ffd5b5060043610610085575f3560e01c80639d591c68116100585780639d591c68146100fa578063bc31c1c114610121578063d96a094a1461014e578063f2fde38b14610161575f5ffd5b806338d52e0f14610089578063715018a6146100cd5780637bad9a3e146100d75780638da5cb5b146100ea575b5f5ffd5b6100b07f000000000000000000000000000000000000000000000000000000000000000081565b6040516001600160a01b0390911681526020015b60405180910390f35b6100d5610174565b005b6100d56100e53660046105d0565b610187565b5f546001600160a01b03166100b0565b6100b07f000000000000000000000000000000000000000000000000000000000000000081565b61014061012f3660046105f0565b60016020525f908152604090205481565b6040519081526020016100c4565b6100d561015c3660046105f0565b610304565b6100d561016f36600461061b565b610518565b61017c610555565b6101855f610581565b565b61018f610555565b5f81116101d55760405162461bcd60e51b815260206004820152600f60248201526e50726563696f20696e76616c69646f60881b60448201526064015b60405180910390fd5b6040516331a9108f60e11b81526004810183905230906001600160a01b037f00000000000000000000000000000000000000000000000000000000000000001690636352211e90602401602060405180830381865afa15801561023a573d5f5f3e3d5ffd5b505050506040513d601f19601f8201168201806040525081019061025e919061063d565b6001600160a01b0316146102b45760405162461bcd60e51b815260206004820152601b60248201527f456c20636f6e747261746f206e6f20706f73656520656c204e4654000000000060448201526064016101cc565b5f82815260016020526040908190208290555182907fc5f070c186c1b761efa79fbedff80ad25d70c5a58fd310776cea62b265d48545906102f89084815260200190565b60405180910390a25050565b5f81815260016020526040902054806103545760405162461bcd60e51b815260206004820152601260248201527141637469766f206e6f20656e2076656e746160701b60448201526064016101cc565b7f00000000000000000000000000000000000000000000000000000000000000006001600160a01b03166323b872dd336103955f546001600160a01b031690565b6040516001600160e01b031960e085901b1681526001600160a01b03928316600482015291166024820152604481018490526064016020604051808303815f875af11580156103e6573d5f5f3e3d5ffd5b505050506040513d601f19601f8201168201806040525081019061040a9190610658565b6104455760405162461bcd60e51b815260206004820152600c60248201526b5061676f2066616c6c69646f60a01b60448201526064016101cc565b604051632142170760e11b8152306004820152336024820152604481018390527f00000000000000000000000000000000000000000000000000000000000000006001600160a01b0316906342842e0e906064015f604051808303815f87803b1580156104b0575f5ffd5b505af11580156104c2573d5f5f3e3d5ffd5b5050505f83815260016020526040808220919091555133915083907f292a715744610be2d2c003ffa789368466ca91526353f24503687fb495dca8699061050c9085815260200190565b60405180910390a35050565b610520610555565b6001600160a01b03811661054957604051631e4fbdf760e01b81525f60048201526024016101cc565b61055281610581565b50565b5f546001600160a01b031633146101855760405163118cdaa760e01b81523360048201526024016101cc565b5f80546001600160a01b038381166001600160a01b0319831681178455604051919092169283917f8be0079c531659141344cd1fd0a4f28419497f9722a3daafe3b4186f6b6457e09190a35050565b5f5f604083850312156105e1575f5ffd5b50508035926020909101359150565b5f60208284031215610600575f5ffd5b5035919050565b6001600160a01b0381168114610552575f5ffd5b5f6020828403121561062b575f5ffd5b813561063681610607565b9392505050565b5f6020828403121561064d575f5ffd5b815161063681610607565b5f60208284031215610668575f5ffd5b81518015158114610636575f5ffdfea2646970667358221220b1fe41782df97ca3f965f6d1861ef15c30da2f92d8d1376b669991d46550c54e64736f6c634300081e0033",
  "linkReferences": {},
  "deployedLinkReferences": {},
  "immutableReferences": {
    "397": [
      {
        "length": 32,
        "start": 255
      },
      {
        "length": 32,
        "start": 854
      }
    ],
    "400": [
      {
        "length": 32,
        "start": 142
      },
      {
        "length": 32,
        "start": 501
      },
      {
        "length": 32,
        "start": 1127
      }
    ]
  },
  "inputSourceName": "project/contracts/AssetSale.sol",
  "buildInfoId": "solc-0_8_30-4c20d4d6d15de130af49b33108a50b571ecff35c"
}