{
  "_format": "hh3-artifact-1",
  "contractName": "DVPMarketplace",
  "sourceName": "contracts/DVPMarketplace.sol",
  "abi": [
    {
      "inputs": [
        {
          "internalType": "address",
          "name": "_cbdc",
          "type": "address"
        },
        {
          "internalType": "address",
          "name": "_asset",
          "type": "address"
        }
      ],
      "stateMutability": "nonpayable",
      "type": "constructor"
    },
    {
      "inputs": [],
      "name": "asset",
      "outputs": [
        {
          "internalType": "contract IERC721",
          "name": "",
          "type": "address"
        }
      ],
      "stateMutability": "view",
      "type": "function"
    },
    {
      "inputs": [],
      "name": "cbdc",
      "outputs": [
        {
          "internalType": "contract IERC20",
          "name": "",
          "type": "address"
        }
      ],
      "stateMutability": "view",
      "type": "function"
    },
    {
      "inputs": [
        {
          "internalType": "address",
          "name": "seller",
          "type": "address"
        },
        {
          "internalType": "address",
          "name": "buyer",
          "type": "address"
        },
        {
          "internalType": "uint256",
          "name": "tokenId",
          "type": "uint256"
        },
        {
          "internalType": "uint256",
          "name": "price",
          "type": "uint256"
        }
      ],
      "name": "trade",
      "outputs": [],
      "stateMutability": "nonpayable",
      "type": "function"
    }
  ],
  "bytecode": "0x60c060405234801561000f575f5ffd5b5060405161063538038061063583398101604081905261002e91610060565b6001600160a01b039182166080521660a052610091565b80516001600160a01b038116811461005b575f5ffd5b919050565b5f5f60408385031215610071575f5ffd5b61007a83610045565b915061008860208401610045565b90509250929050565b60805160a0516105636100d25f395f818160480152818160ce015281816101c701528181610265015261043501525f818160a0015261035a01526105635ff3fe608060405234801561000f575f5ffd5b506004361061003f575f3560e01c806338d52e0f146100435780634849b6c8146100865780639d591c681461009b575b5f5ffd5b61006a7f000000000000000000000000000000000000000000000000000000000000000081565b6040516001600160a01b03909116815260200160405180910390f35b6100996100943660046104a9565b6100c2565b005b61006a7f000000000000000000000000000000000000000000000000000000000000000081565b836001600160a01b03167f00000000000000000000000000000000000000000000000000000000000000006001600160a01b0316636352211e846040518263ffffffff1660e01b815260040161011a91815260200190565b602060405180830381865afa158015610135573d5f5f3e3d5ffd5b505050506040513d601f19601f8201168201806040525081019061015991906104ec565b6001600160a01b0316146101a75760405162461bcd60e51b815260206004820152601060248201526f29b2b63632b9103737ba1037bbb732b960811b60448201526064015b60405180910390fd5b60405163020604bf60e21b81526004810183905230906001600160a01b037f0000000000000000000000000000000000000000000000000000000000000000169063081812fc90602401602060405180830381865afa15801561020c573d5f5f3e3d5ffd5b505050506040513d601f19601f8201168201806040525081019061023091906104ec565b6001600160a01b031614806102ce575060405163e985e9c560e01b81526001600160a01b0385811660048301523060248301527f0000000000000000000000000000000000000000000000000000000000000000169063e985e9c590604401602060405180830381865afa1580156102aa573d5f5f3e3d5ffd5b505050506040513d601f19601f820116820180604052508101906102ce919061050e565b61032c5760405162461bcd60e51b815260206004820152602960248201527f4d61726b6574706c616365206e6f207469656e65207065726d69736f20736f626044820152681c9948195b0813919560ba1b606482015260840161019e565b6040516323b872dd60e01b81526001600160a01b0384811660048301528581166024830152604482018390527f000000000000000000000000000000000000000000000000000000000000000016906323b872dd906064016020604051808303815f875af11580156103a0573d5f5f3e3d5ffd5b505050506040513d601f19601f820116820180604052508101906103c4919061050e565b6104075760405162461bcd60e51b815260206004820152601460248201527310d09110c81d1c985b9cd9995c8819985a5b195960621b604482015260640161019e565b604051632142170760e11b81526001600160a01b0385811660048301528481166024830152604482018490527f000000000000000000000000000000000000000000000000000000000000000016906342842e0e906064015f604051808303815f87803b158015610476575f5ffd5b505af1158015610488573d5f5f3e3d5ffd5b5050505050505050565b6001600160a01b03811681146104a6575f5ffd5b50565b5f5f5f5f608085870312156104bc575f5ffd5b84356104c781610492565b935060208501356104d781610492565b93969395505050506040820135916060013590565b5f602082840312156104fc575f5ffd5b815161050781610492565b9392505050565b5f6020828403121561051e575f5ffd5b81518015158114610507575f5ffdfea2646970667358221220095421d255689b6411de4b956d836662e04c65c1173752d78a4a2e373e5f02d764736f6c634300081e0033",
  "linkReferences": {},
  "deployedLinkReferences": {},
  "immutableReferences": {
    "215": [
      {
        "length": 32,
        "start": 160
      },
      {
        "length": 32,
        "start": 858
      }
    ],
    "218": [
      {
        "length": 32,
        "start": 72
      },
      {
        "length": 32,
        "start": 206
      },
      {
        "length": 32,
        "start": 455
      },
      {
        "length": 32,
        "start": 613
      },
      {
        "length": 32,
        "start": 1077
      }
    ]
  },
  "inputSourceName": "project/contracts/DVPMarketplace.sol",
  "buildInfoId": "solc-0_8_30-5e18dafdd8c576249798dc32b8176ac4779beb37"
}