{
  "_format": "hh3-artifact-1",
  "contractName": "DVPMarketplace",
  "sourceName": "contracts/DVPMarketplace.sol",
  "abi": [
    {
      "inputs": [
        {
          "internalType": "address",
          "name": "_cbdc",
          "type": "address"
        },
        {
          "internalType": "address",
          "name": "_asset",
          "type": "address"
        }
      ],
      "stateMutability": "nonpayable",
      "type": "constructor"
    },
    {
      "inputs": [],
      "name": "asset",
      "outputs": [
        {
          "internalType": "contract IERC721",
          "name": "",
          "type": "address"
        }
      ],
      "stateMutability": "view",
      "type": "function"
    },
    {
      "inputs": [],
      "name": "cbdc",
      "outputs": [
        {
          "internalType": "contract IERC20",
          "name": "",
          "type": "address"
        }
      ],
      "stateMutability": "view",
      "type": "function"
    },
    {
      "inputs": [
        {
          "internalType": "address",
          "name": "seller",
          "type": "address"
        },
        {
          "internalType": "address",
          "name": "buyer",
          "type": "address"
        },
        {
          "internalType": "uint256",
          "name": "tokenId",
          "type": "uint256"
        },
        {
          "internalType": "uint256",
          "name": "price",
          "type": "uint256"
        }
      ],
      "name": "trade",
      "outputs": [],
      "stateMutability": "nonpayable",
      "type": "function"
    }
  ],
  "bytecode": "0x60c060405234801561000f575f5ffd5b50604051610af0380380610af0833981810160405281019061003191906100fe565b8173ffffffffffffffffffffffffffffffffffffffff1660808173ffffffffffffffffffffffffffffffffffffffff16815250508073ffffffffffffffffffffffffffffffffffffffff1660a08173ffffffffffffffffffffffffffffffffffffffff1681525050505061013c565b5f5ffd5b5f73ffffffffffffffffffffffffffffffffffffffff82169050919050565b5f6100cd826100a4565b9050919050565b6100dd816100c3565b81146100e7575f5ffd5b50565b5f815190506100f8816100d4565b92915050565b5f5f60408385031215610114576101136100a0565b5b5f610121858286016100ea565b9250506020610132858286016100ea565b9150509250929050565b60805160a05161097261017e5f395f8181609d0152818160d8015281816101dd01528181610292015261044801525f818161036c01526104d801526109725ff3fe608060405234801561000f575f5ffd5b506004361061003f575f3560e01c806338d52e0f146100435780634849b6c8146100615780639d591c681461007d575b5f5ffd5b61004b61009b565b6040516100589190610574565b60405180910390f35b61007b600480360381019061007691906105ff565b6100bf565b005b6100856104d6565b6040516100929190610683565b60405180910390f35b7f000000000000000000000000000000000000000000000000000000000000000081565b8373ffffffffffffffffffffffffffffffffffffffff167f000000000000000000000000000000000000000000000000000000000000000073ffffffffffffffffffffffffffffffffffffffff16636352211e846040518263ffffffff1660e01b815260040161012f91906106ab565b602060405180830381865afa15801561014a573d5f5f3e3d5ffd5b505050506040513d601f19601f8201168201806040525081019061016e91906106d8565b73ffffffffffffffffffffffffffffffffffffffff16146101c4576040517f08c379a00000000000000000000000000000000000000000000000000000000081526004016101bb9061075d565b60405180910390fd5b3073ffffffffffffffffffffffffffffffffffffffff167f000000000000000000000000000000000000000000000000000000000000000073ffffffffffffffffffffffffffffffffffffffff1663081812fc846040518263ffffffff1660e01b815260040161023491906106ab565b602060405180830381865afa15801561024f573d5f5f3e3d5ffd5b505050506040513d601f19601f8201168201806040525081019061027391906106d8565b73ffffffffffffffffffffffffffffffffffffffff16148061032b57507f000000000000000000000000000000000000000000000000000000000000000073ffffffffffffffffffffffffffffffffffffffff1663e985e9c585306040518363ffffffff1660e01b81526004016102eb92919061078a565b602060405180830381865afa158015610306573d5f5f3e3d5ffd5b505050506040513d601f19601f8201168201806040525081019061032a91906107e6565b5b61036a576040517f08c379a000000000000000000000000000000000000000000000000000000000815260040161036190610881565b60405180910390fd5b7f000000000000000000000000000000000000000000000000000000000000000073ffffffffffffffffffffffffffffffffffffffff166323b872dd8486846040518463ffffffff1660e01b81526004016103c79392919061089f565b6020604051808303815f875af11580156103e3573d5f5f3e3d5ffd5b505050506040513d601f19601f8201168201806040525081019061040791906107e6565b610446576040517f08c379a000000000000000000000000000000000000000000000000000000000815260040161043d9061091e565b60405180910390fd5b7f000000000000000000000000000000000000000000000000000000000000000073ffffffffffffffffffffffffffffffffffffffff166342842e0e8585856040518463ffffffff1660e01b81526004016104a39392919061089f565b5f604051808303815f87803b1580156104ba575f5ffd5b505af11580156104cc573d5f5f3e3d5ffd5b5050505050505050565b7f000000000000000000000000000000000000000000000000000000000000000081565b5f73ffffffffffffffffffffffffffffffffffffffff82169050919050565b5f819050919050565b5f61053c610537610532846104fa565b610519565b6104fa565b9050919050565b5f61054d82610522565b9050919050565b5f61055e82610543565b9050919050565b61056e81610554565b82525050565b5f6020820190506105875f830184610565565b92915050565b5f5ffd5b5f61059b826104fa565b9050919050565b6105ab81610591565b81146105b5575f5ffd5b50565b5f813590506105c6816105a2565b92915050565b5f819050919050565b6105de816105cc565b81146105e8575f5ffd5b50565b5f813590506105f9816105d5565b92915050565b5f5f5f5f608085870312156106175761061661058d565b5b5f610624878288016105b8565b9450506020610635878288016105b8565b9350506040610646878288016105eb565b9250506060610657878288016105eb565b91505092959194509250565b5f61066d82610543565b9050919050565b61067d81610663565b82525050565b5f6020820190506106965f830184610674565b92915050565b6106a5816105cc565b82525050565b5f6020820190506106be5f83018461069c565b92915050565b5f815190506106d2816105a2565b92915050565b5f602082840312156106ed576106ec61058d565b5b5f6106fa848285016106c4565b91505092915050565b5f82825260208201905092915050565b7f53656c6c6572206e6f74206f776e6572000000000000000000000000000000005f82015250565b5f610747601083610703565b915061075282610713565b602082019050919050565b5f6020820190508181035f8301526107748161073b565b9050919050565b61078481610591565b82525050565b5f60408201905061079d5f83018561077b565b6107aa602083018461077b565b9392505050565b5f8115159050919050565b6107c5816107b1565b81146107cf575f5ffd5b50565b5f815190506107e0816107bc565b92915050565b5f602082840312156107fb576107fa61058d565b5b5f610808848285016107d2565b91505092915050565b7f4d61726b6574706c616365206e6f207469656e65207065726d69736f20736f625f8201527f726520656c204e46540000000000000000000000000000000000000000000000602082015250565b5f61086b602983610703565b915061087682610811565b604082019050919050565b5f6020820190508181035f8301526108988161085f565b9050919050565b5f6060820190506108b25f83018661077b565b6108bf602083018561077b565b6108cc604083018461069c565b949350505050565b7f43424443207472616e73666572206661696c65640000000000000000000000005f82015250565b5f610908601483610703565b9150610913826108d4565b602082019050919050565b5f6020820190508181035f830152610935816108fc565b905091905056fea2646970667358221220c7afce81f753a477da85f395365c6cc00a0ee7da8311f9f722021a790b392cb564736f6c634300081e0033",
  "linkReferences": {},
  "deployedLinkReferences": {},
  "immutableReferences": {
    "7362": [
      {
        "length": 32,
        "start": 876
      },
      {
        "length": 32,
        "start": 1240
      }
    ],
    "7365": [
      {
        "length": 32,
        "start": 157
      },
      {
        "length": 32,
        "start": 216
      },
      {
        "length": 32,
        "start": 477
      },
      {
        "length": 32,
        "start": 658
      },
      {
        "length": 32,
        "start": 1096
      }
    ]
  },
  "inputSourceName": "project/contracts/DVPMarketplace.sol",
  "buildInfoId": "solc-0_8_30-87bb3db07fce35593e047e676b12e9c5d9850e31"
}